:020000040800F2
:10000000888C0120F51B0108E51A0108E71A010890
:10001000E91A0108EB1A0108ED1A010800000000B6
:10002000000000000000000000000000F1BD00081A
:10003000EF1A01080000000099BD0008498E000871
:100040004B1C01084F1C0108531C0108571C0108D8
:100050005B1C01085F1C0108F11A0108631C010800
:10006000671C01086B1C01086F1C0108731C010848
:10007000771C01087B1C01087F1C0108831C0108F8
:10008000871C01088B1C01088F1C0108931C0108A8
:10009000971C01089B1C01089F1C0108A31C010858
:1000A000A71C0108F71A0108AB1C0108AF1C0108C6
:1000B000FD1A0108B31C0108B71C0108BB1C01088C
:1000C000BF1C0108C31C0108C71C0108CB1C010888
:1000D000CF1C0108D31C0108D71C0108DB1C010838
:1000E000DF1C0108E31C0108E71C0108EB1C0108E8
:1000F000EF1C0108F31C0108F71C0108FB1C010898
:10010000FF1C0108031D0108071D01080B1D010844
:100110000F1D0108131D0108171D01081B1D0108F3
:100120001F1D0108231D0108271D01082B1D0108A3
:100130002F1D01080F1B0108331D0108371D010881
:100140003B1D01083F1D0108431D0108471D010813
:100150004B1D01084F1D0108531D0108571D0108C3
:100160005B1D01085F1D0108631D0108671D010873
:100170006B1D01086F1D0108731D010800000000C0
:10018000771D01087B1D01087F1D0108831D0108E3
:10019000871D01088B1D01088F1D0108931D010893
:1001A000971D01089B1D01089F1D0108082819D8EB
:1001B000DFE800F005080A0C0E101214160000BF4C
:1001C00009A070470DA070470FA0704712A070479C
:1001D00015A0704718A070471AA070471CA0704760
:1001E00020A0704722A070475054505F494E495498
:1001F00049414C495A494E47000000005054505F55
:100200004641554C545900005054505F44495341A5
:10021000424C4544000000005054505F4C49535438
:10022000454E494E470000005054505F5052455FC4
:100230004D415354455200005054505F4D4153546A
:10024000455200005054505F5041535349564500A9
:100250005054505F554E43414C49425241544544DD
:10026000000000005054505F534C415645000000C0
:10027000554E4B4E4F574E002DE9FC4180460F46E0
:10028000012188F8C81300F0F3FCDFF8BC5400F03B
:10029000EAFC08F162042078FFF788FF4FEA0001CA
:1002A0007BA001F07DFA2078C01E05282FD8DFE85A
:1002B00000F02529031F0D0D00F011F9022001F0B7
:1002C000C2FA042001F0BFFA00201EE0072F18BF79
:1002D000082F1CD0032001F0B6FA607B012802D061
:1002E000022802D1002001F0AEFA00F0F8F80EE08A
:1002F00000F0F5F8002001F0A6FA01E000F0EFF8B8
:10030000032002E000F0EBF8052001F09CFA00F079
:10031000AFFC00F0A8FC3846FFF748FF4FEA0001A9
:1003200060A001F03DFA082F4FF47A761DD8DFE87F
:1003300007F00507090B1D1D5B79AA00002011E0DD
:1003400001209EE002219FE094F90A000146002965
:10035000CEBF86404942CE40E07A06FB00F100F075
:100360006CFB0320207088F810048EE0022060707F
:1003700094F90C1008460028CEBF06FA01F140425D
:1003800026FA00F1022001F06BFA00F071FC00F097
:100390006AFC94F90C1008460028CEBF06FA01F159
:1003A000404226FA00F100BF43A001F0F9F900F045
:1003B00091F8CEBF06FA01F1404226FA00F104207E
:1003C00001F04EFA607B02280CD194F90E00014630
:1003D0000029CEBF86404942CE40701C01F09AFAF7
:1003E00000F0C6FE05204CE000F074F8CEBF06FA1F
:1003F00001F1404226FA00F1E07A414300F01DFB92
:10040000607B02280CD194F90E00411CC7BF401C30
:1004100086404942CE40304601F07CFA00F0A8FE0A
:1004200006202EE000F056F8CEBF06FA01F1404259
:1004300026FA00F1E07A414300F0FFFA607B0128E0
:1004400002D002280DD01BE02056411CC7BF401C23
:1004500086404942CE40304601F05CFA0146012018
:100460000CE094F90E00411CC7BF401C8640494275
:10047000CE40304601F04EFA0146002001F0F0F97E
:100480000720207001E008212170BDE8F381000001
:100490006C656176696E672073746174652025737D
:1004A0000A000000656E746572696E67207374617E
:1004B00074652025730A000053594E4320494E5459
:1004C000455256414C2054494D4552203A2025640E
:1004D000200A000094F90A10084600287047404698
:1004E00001F052BA2DE9FC470446002084F8C80305
:1004F00004F1620604F582653078934FC01E05282A
:1005000018D8A86A410615D520F04000A8622046F8
:1005100001F068FE2870401F01280BD8E07C10B95C
:10052000207BFF2806D103212970307803281DD0B5
:10053000032160E02878002869D00328F5D0052839
:1005400004D0062810D0082814D057E031780429A8
:1005500002D005295BD005E001F08DF9002856D0C6
:10056000052148E0042146E03078062800F0968016
:10057000062140E03078072802D0082822D039E050
:10058000A96A48050ED500F073FB00F0D6FB00BF4A
:100590006EA001F005F9A86A20F48060A862082125
:1005A00000F026F9A86A010531D500F061FB00F0E2
:1005B000C4FB00BF6DA001F0F3F8A86A20F400604E
:1005C000A86224E0A86A81050ED500F051FB00F076
:1005D000B4FB00BF6CA001F0E3F8A86A20F400703F
:1005E000A862072100F004F9A86A01050FD520F4DC
:1005F0000060A862072100F0FBF808E000F038FB7B
:1006000000F09BFB95F8001067A001F0C9F8307866
:100610000FF6004A082804F5737804F1CC0900F2BB
:100620008780DFE800F00531553B85593B3B3B00B7
:1006300000F01EFB00F081FB0FF628410FF608408A
:1006400001F0AEF8404601F044FE2146404601F07C
:10065000A7FE48B900F00CFB00F0CCF80FF64040C4
:1006600001F09EF8012130E0204601F092FB01F0FC
:10067000B9F8204601F088F9204601F076FC494699
:10068000204602F0C4F91FE000F0F2FA00F055FB3A
:100690000FF6344001F084F8002116E0032001F049
:1006A000EAF8A8B10020F0827083E07C48B9207B92
:1006B000FF2806D0204601F058FC052028700521AF
:1006C00003E0307803283CD0032100F091F838E0B3
:1006D000204600F095F834E0022001F0CCF810B18B
:1006E000204600F04DFD042001F0C5F8C8B1494690
:1006F000204602F0AEF9402249464FEA080001F0D8
:10070000EEFF48B900F0B4FA00F074F831A001F03F
:1007100047F800F017FB04E0B4F88603401CA4F887
:100720008603204600F06CF8204600F08DFC08E0BF
:1007300000F09EFA00F001FB31780FF6B83001F0BE
:100740002FF8BDE8F3870000381200086576656E63
:1007500074204D41535445525F434C4F434B5F53BC
:10076000454C45435445440A000000006576656EDB
:1007700074204D41535445525F434C4F434B5F43AC
:1007800048414E4745440A006576656E74205359CA
:100790004E4348524F4E495A4154494F4E5F46418D
:1007A000554C540A00000000646F53746174653A3C
:1007B00020756E7265636F676E697A656420726515
:1007C000636F6D6D656E646564207374617465201C
:1007D00025640A006973737565416E6E6F756E638B
:1007E000653A2063616E27742073656E740A000099
:1007F000204641E5019A0099504600F0D1BF000023
:10080000F8B504460FF610300FF60825D0E900239E
:1008100084B004F57376CDE9002394F8C81361B968
:10082000304601F079FE002806D500F00AFC00F001
:1008300003FC0FF6EC2031E022D004F5FC776A4689
:100840003946304601F0ECFE0028C4F8240306D5F2
:1008500000F0F7FB00F0F0FB0FF6E4201EE010D1F3
:100860006A463946304601F0E0FE0028C4F8240309
:1008700006D500F0E6FB00F0DFFB0FF6F4200DE0FC
:100880006CD0D4F824130120222984F8C8030ADA92
:1008900000F0D7FB00F0D0FB0FF6083000F080FF2F
:1008A00000F050FA5AE004F18001384602F062F894
:1008B00004F17105687C2978884202BF687DA17CBB
:1008C00088424BD104F1980100F033FA060008D1B8
:1008D0000098002805DD04F583626946684602F049
:1008E0003DFB287C0D2830D8DFE800F00C161B25D6
:1008F0002F2F2F2F11202A0738383146204600F09D
:1009000033F82BE000F02CF800F09AF826E031469E
:10091000204600F0ECF821E000F022F800F051F958
:100920001CE000F01DF800F011FA17E031462046F7
:1009300000F0A1F912E000F013F800F08FFA0DE0DA
:100940003146204600F012FB08E000F07AFB00F090
:1009500007FB297C0FF6782000F022FF05B0F0BDE0
:1009600032466946204670472DE9FC470646D6F8D0
:100970002423402A0CDA00F07BF900F0B2F80FF6DD
:10098000742000F00DFF01213046FFF775FC4FE0A9
:1009900000294DD106F1620406F1800A2078022870
:1009A00006F5FC7806F1A8094FF47A7540D9801F46
:1009B00025D0401E01282CD8D6F8382442F0400219
:1009C000C6F8382406F1980106F1280001F04DFA26
:1009D00007464946404602F07DF8002F4A465146F8
:1009E000304623D001F0F1FA94F90A0001460129BA
:1009F000AEBF85404942CD4000F01CF818E094F9A4
:100A00000A0001460129AEBF85404942CD4000F0B1
:100A100011F84946404602F05DF8D6F8380440F037
:100A20004000C6F838044A465146304601F02FFAD5
:100A3000BDE8F387E07A05FB00F1032000F010BF6A
:100A400070B5044686B00D46D4F824132C290ADA72
:100A500000F00EF900F045F80FF6B81000F0A0FE17
:100A600000F070F93BE094F86200801F34D0401E23
:100A7000012834D8002A32D100F09DF800282ED069
:100A8000D5E9000104F5567204F28A35C2E9000185
:100A900000F048F994F8870081070BD50120A87071
:100AA00004F55C70B4F8A2102980DDE90223C0E9E6
:100AB000002314E004F1A806314604F5FC7002F0AE
:100AC00059F80020A870314600F06CF802AB00F035
:100AD0006CF8204601F05CF8204600F0B5FA06B04C
:100AE00070BD019A00990FF22C7000F059BE70B5DC
:100AF000044604F5497586B02A682C2A0EDA00F0FF
:100B0000A0FA039A02990FF20C7000F049FE0FF65A
:100B1000201000F045FE00F015F940E000293ED11C
:100B200004F162063078032839D9401F37D0401EBF
:100B30002AD0401E01282AD800F03DF8014694F83A
:100B40008C03002818BF002929D0B5F96600B6F932
:100B50004010884223D100F064FA02F069F80020C6
:100B600084F88C0300F01DF800F061FA04F55C7263
:100B700000F05EFB6B4600F018F8204601F008F824
:100B8000204600F061FA0AE00FF6C40005E000F02C
:100B900058FA00F0E5F90FF6DC0000F001FE06B0AF
:100BA00070BD294604A802F09FB904AA04F5567145
:100BB000204600F03BBF04F1980104F1280001F049
:100BC00054B978B50446084604F1620185B04A7B01
:100BD0000FF24065012A02D0022A3AD041E0D4F84F
:100BE00024332C2B06DA00F043F800F03CF80FF623
:100BF000A80022E00978032933D9491F04D0891EAF
:100C00002FD0491E2DD01DE002A902F057F904F1A2
:100C1000CC0602AB04F180023146204602F00AF80D
:100C20003622314604F5737001F059FDC8B900F061
:100C30001FF800F018F80FF6243000F0B1FD00F0B6
:100C400081F80EE000F014F800F002F90FF66800E9
:100C500005E000F00DF800F006F80FF6800000F057
:100C60009FFD06B070BD019A0099284600F098BD1E
:100C7000684600F02BBE2DE9FF41044604F16205F1
:100C80000FF29057687B012802D0022840D047E03D
:100C900004F54976316836290ADAFFF7E9FF00F0F2
:100CA0004CF80FF6600000F07BFD00F04BF837E0E9
:100CB0002878032834D9C01F012831D804F1A808A6
:100CC000414604F5FC7001F0D9FFFFF774FF0746B9
:100CD00000F02DF8B6F95E10B5F94020491E91429A
:100CE0001ED1002818BF002F1AD004F55A764146AD
:100CF000304602F0F9F800F015F802AB324604F580
:100D00005871204600F0E7FE95F84300687007E050
:100D1000FFF7AEFF00F011F80FF6080000F040FDFD
:100D2000BDE8FF8102A904F1900002F0A5B804F12A
:100D3000B40104F1580001F098B8019A00993846BE
:100D400000F02EBD01212046FFF796BA2DE9F043B1
:100D5000044604F1620085B00E46417B0FF2B445B3
:100D6000012902D0022907D06FE0FFF781FFFFF7CA
:100D70007AFF0FF2DC7066E0D4F82413362906DA25
:100D8000FFF776FFFFF76FFF0FF2F07050E000788B
:100D900003285AD9401F012803D9801E55D0401E70
:100DA0004BD1002A51D102A9304602F087F804F154
:100DB000CC0704F1800802AA4146384601F08FFFB3
:100DC00004F57379334636223946484601F099FCDA
:100DD00050B9FFF74DFFFFF746FF0FF6601000F028
:100DE000DFFCFFF7AFFF08E0306800282DD004F5E6
:100DF00084623146304602F0A8F8306828B394F88F
:100E00008700810721D502A9304602F057F802AACF
:100E10004146384601F0ACFF36223946484601F0DB
:100E200068FC90B9FFF724FFFFF71DFF0FF648108D
:100E300000F0B6FCFFF786FF07E0FFF719FF00F0B0
:100E400007F80FF2587000F0ABFC05B0BDE8F08376
:100E5000019A00990FF2E03000F0A2BCF8B5044608
:100E600004F1620086B00D46417B0FF2A8370129DC
:100E700002D0022907D06AE000F0E3F800F0D2F9CE
:100E80000FF2407061E004F54976316836290ADADC
:100E900000F0D7F800F0C6F90FF2547000F080FCB3
:100EA000FFF750FF53E00078032850D9401F03D0CC
:100EB000801E4CD0401E42D1002A48D104F1A80720
:100EC000394604F5FC7001F037FFFFF730FFB6F943
:100ED0005C10B4F9A220491E914238D1002836D0C6
:100EE00094F88700810704F1900619D5012084F851
:100EF0008D03D5E9002304F5547104A8C1E900234A
:100F0000394601F0F1FFDDE9040104F5507200F00B
:100F100020F8DDE9000104F55E72C2E9000116E087
:100F2000002384F88D33D5E9000104F5547200F0F4
:100F300010F800226946204600F0F5FD07E000F0B9
:100F400080F800F00DF80FF2CC6000F029FC07B03B
:100F5000F0BDC2E900016946304601F08DBF0000D6
:100F6000039A0299B4A000F01BBC000038B50446F7
:100F700004F1620186B04A7BA6A5012A02D0022AAA
:100F800007D04CE000F05DF800F056F80FF2AC60CE
:100F900021E004F54972106836280ADA00F051F8A9
:100FA00000F04AF80FF2C86000F0FAFBFFF7CAFE43
:100FB00035E00B78022B32D95B1F03D09B1E2ED05D
:100FC0005B1E2CD194F88D0340B900F03AF8FFF77E
:100FD000C7FF0FF2C86000F0E3FB20E0B1F940006A
:100FE000B2F95C10491E884219D100F01AF801F0DC
:100FF00004FFFFF7D6FDDDE9040104F55272C2E9F2
:10100000000100F014F804F55E7200F011F90122FD
:101010006946204600F087FD002084F88D0307B064
:1010200030BD04F1A805294604F5FC7070476946F7
:1010300004F1900001F020BF039A0299284600F0C5
:10104000AFBB02A800F042BC2DE9F04F044604F10A
:10105000620787B0787B0FF2BC19012804F5846A17
:1010600004F5607604F5737B04F1CC084FF47A75CF
:1010700002D002283AD073E03978082970D100F004
:10108000FAFB00286CD097F90100411CC7BF401C37
:1010900085404942CD40284600F03CFC01460120F5
:1010A00000F0DEFBFFF7E4FD00F066F804AA41461D
:1010B000204601F061FD6B462C224146584601F066
:1010C00003FB30B9FFF7BDFF00F04DF80FF23460BD
:1010D00034E07088401C70800098002840D000F0F8
:1010E000A6F8DDE9000104F5587237E0002000F0B1
:1010F000C2FB002834D097F90E00411CC7BF401C2A
:1011000085404942CD40284600F004FC00F030F80C
:10111000FFF7AEFD00F030F804AA4146204601F08A
:10112000AFFD6B4636224146584601F0EAFA50B907
:10113000FFF787FF00F017F80FF2E45000F030FBE4
:10114000FFF700FE0CE03188491C3180009838B16F
:1011500000F06DF8DDE9000104F54E72C2E900010E
:1011600007B0BDE8F08F039A0299484600F018BB1B
:101170000146002000F074BB04A9684601F09EBE41
:10118000F8B58AB00446FFF773FD07A9FFF7F5FF2E
:1011900004F1CC0507AA2946204601F0CCFC04F551
:1011A00073766B462C222946304601F08DFA00BF3B
:1011B00018A730B9FFF745FF00F034F80FF21050D0
:1011C00021E0B4F88403401CA4F8840300990029AA
:1011D0001CBF207800281AD004F5846200F028F89B
:1011E000FFF7CAFF04AA2946204601F0EFFC2C2293
:1011F0002946304601F073FA48B9FFF722FF00F0A4
:1012000011F80FF2E44000F0CBFAFFF79BFD0BB0B2
:10121000F0BD000028452025642E253039642920A2
:1012200000000000039A0299384600F0B9BA52460D
:101230006946684601F089BE28442025642E253081
:1012400039642920000000006D616E756661637469
:10125000757265724964656E746974793A20257394
:101260000A000000505450643B322E302E310000F2
:10127000000000000000000000000000000000006E
:10128000000000000000000000000000000000005E
:10129000000000000000000000000000000000004E
:1012A000646F496E69743A206661696C6564207484
:1012B0006F20696E697469616C697A65206E657406
:1012C000776F726B0A0000006576656E7420464188
:1012D000554C545F434C454152454420666F722043
:1012E0007374617465205054505F4641554C540AE4
:1012F00000000000646F53746174653A20646F20CD
:10130000756E7265636F676E697A65642073746168
:1013100074652025640A0000000000000000000041
:1013200068616E646C653A206661696C65642074FE
:101330006F20706F6C6C20736F636B6574730A0041
:1013400068616E646C653A206661696C65642074DE
:101350006F2072656365697665206F6E20746865BD
:10136000206576656E7420736F636B65740A000088
:1013700068616E646C653A206661696C65642074AE
:101380006F2072656365697665206F6E207468658D
:101390002067656E6572616C20736F636B65740A9C
:1013A0000000000068616E646C653A206D657373BF
:1013B0006167652073686F72746572207468616E0E
:1013C00020686561646572206C656E6774680A00E8
:1013D00068616E646C653A20756E7265636F676EE6
:1013E000697A6564206D6573736167652025640A99
:1013F0000000000068616E646C65416E6E6F756E12
:1014000063653A2073686F7274206D6573736167EA
:10141000650A000068616E646C6553796E633A20FA
:1014200073686F7274206D6573736167650A00007D
:1014300068616E646C65466F6C6C6F7775703A208E
:1014400073686F7274206D6573736167650A00005D
:10145000504153534956453A476F696E6720746F40
:101460002069737375652044656C61795265710AF2
:101470000000000068616E646C65466F6C6C6F778D
:1014800075703A20756E7265636F676E697A656410
:101490002073746174650A0068616E646C654465EC
:1014A0006C61795265713A2073686F7274206D6552
:1014B00073736167650A000068616E646C654465FA
:1014C0006C61795265713A20756E7265636F676EF3
:1014D000697A65642073746174650A0068616E647A
:1014E0006C6544656C61795265713A206469737208
:1014F00065677561726420696E20503250206D6F8F
:1015000064650A0068616E646C6544656C6179525B
:101510006573703A2073686F7274206D65737361C0
:1015200067650A0068616E646C6544656C61795238
:101530006573703A206469737265677561726420BF
:10154000696E20503250206D6F64650A0000000003
:1015500068616E646C655044656C61795265713A7E
:10156000206469737265677561726420696E2045D5
:101570003245206D6F64650A0000000068616E648A
:101580006C655044656C61795265713A2073686F7F
:101590007274206D6573736167650A0068616E64BB
:1015A0006C655044656C61795265713A20756E7254
:1015B00065636F676E697A65642073746174650A28
:1015C0000000000068616E646C655044656C617970
:1015D000526573703A2064697372656775617264ED
:1015E00020696E20453245206D6F64650A00000059
:1015F00068616E646C655044656C617952657370A6
:101600003A2073686F7274206D6573736167650A41
:101610000000000068616E646C655044656C61791F
:10162000526573703A20756E7265636F676E697A82
:1016300065642073746174650A00000068616E64FB
:101640006C655044656C617952657370466F6C6C63
:101650006F7755703A20646973726567756172645B
:1016600020696E20453245206D6F64650A000000D8
:1016700068616E646C655044656C61795265737025
:10168000466F6C6C6F7755703A2073686F72742078
:101690006D6573736167650A0000000068616E64C0
:1016A0006C655044656C617952657370466F6C6C03
:1016B0006F7755703A206E6F742077616974696E28
:1016C000672061206D6573736167650A0000000023
:1016D000697373756553796E633A2063616E27741D
:1016E0002073656E740A00006973737565466F6CCC
:1016F0006C6F7775703A2063616E27742073656E26
:10170000740A0000697373756544656C617952658C
:10171000713A2063616E27742073656E740A00004D
:1017200069737375655044656C61795265713A20CF
:1017300063616E27742073656E740A006973737534
:10174000655044656C6179526573703A2063616ECF
:1017500027742073656E740A000000006973737546
:101760006544656C6179526573703A2063616E27D8
:10177000742073656E740A006973737565504465EF
:101780006C617952657370466F6C6C6F7755703A07
:101790002063616E27742073656E740A0000000078
:1017A0000EB4C0B5024603A800210190009101AB20
:1017B0000121044878440C3001F042FC06BC5DF87D
:1017C00010FB00BF0F04010080B502F0F1FD0628F8
:1017D00006DA2F4A01211154BDE8014002F04ABE49
:1017E00001BD00002DE9FC41684600F06FF8019A48
:1017F000DDF8001028A00FF2BC08254E254DFFF79C
:10180000CFFF00BF28A0FFF7CBFF00241FA7009544
:10181000234601220121384602F012FC06F108019C
:1018200041F8240002F0C4FD024606F1080050F819
:1018300024104046FFF7B4FF00203055641C062CEE
:10184000E5DBBDE8F38138B50446062C07DA104D18
:1018500005EB8401886802F0F0FE0021295531BDB6
:10186000062807DA0A4A0023135402EB8002906824
:1018700002F0C4BE7047062802DA054A115C09B9B5
:101880000020704700211154012070470000000023
:10189000A04B0120C917000828442025642E2530BC
:1018A0003964292000000000696E697454696D650F
:1018B000720A00005054502054696D65723A202518
:1018C00078200949443A2025780A00001CB50446CE
:1018D000684603F007F8009820600199616013BD25
:1018E000000000001FB504462068029002A861684D
:1018F000039103F085FA6846FFF7E8FF019A009923
:1019000012A0FFF74DFF6268D4F8001013A0FFF794
:1019100047FF1FBD10B5044603F00CFBB0FBF4F10C
:1019200004FB1104204610BD80B50649884202DC44
:101930000549884200DA084603F042FA012002BD58
:101940000000000000204E0000E0B1FF28442025E8
:10195000642E25303964292000000000726573650B
:101960007474696E672073797374656D20636C6F2E
:10197000636B20746F2025642073656320256420C9
:101980006E7365630A0000003EB504466846FFF7C3
:101990009DFF019ADDF80010C7A0FFF701FF00BF0F
:1019A000C9A0FFF7FDFE04F54A7000214160002246
:1019B00004F5637102608A630A62002504F234420E
:1019C00013888B830D6152888A810D704D7045613B
:1019D0000561C561856145620562C562856204F184
:1019E00032000570A563458094F8290408B9FFF713
:1019F0009BFF04F5737000F09DFD37BDA54990ED88
:101A0000000AD1ED001AF8EEC00A9FEDA01A20EEF0
:101A1000811AF8EEE11A9FED9E2A01EE821ABDEEC0
:101A2000C12A80ED002A81ED000A704770B5044696
:101A300004F54A761D46304601F090FA2A463146B2
:101A4000304601F08BFA04F54A7004F16205D0E9E2
:101A50000023C4E90623687B012802D0022803D0B2
:101A60000AE004F1200201E004F1640204F118012B
:101A700004F1180001F072FAA06910B12978082960
:101A800021E085480178032902DA491C017005E04C
:101A900004F5647104F11C00FFF7B0FFE069002851
:101AA00048BF404242F21071884207DA287807287E
:101AB00010D1D4F8380440F4806009E077498842B6
:101AC00008DB2878082805D1D4F8380440F40070E1
:101AD000C4F8380470BDF8B505461446D5F89C0323
:101AE0001E46F8B105F54C770A462146384601F006
:101AF00035FA32463946384601F030FA3A4605F5AD
:101B00004A7105F1200001F020FA05F1200001F0F2
:101B100031FA286A30B905F5687105F12400BDE88D
:101B2000F4406BE7F1BD7FB5044610000D4604F5A7
:101B3000547604F54E7211D004F5507102A801F0EC
:101B40000DFA04F552723146684601F007FA6A460A
:101B500002A904F1640001F0F8F904E0314604F14F
:101B6000640001F0FBF92A4604F1640104F1640009
:101B700001F0F4F904F1640001F0FCF9606E28B999
:101B800004F5687104F16800FFF738FF7FBD0000BD
:101B90007FB5044604F58565A069414A414B30B9DB
:101BA000E069414E010048BF4942B1421ADB697801
:101BB000002947D1287878B96846FFF787FE04F1F5
:101BC00018026946684601F0C9F96846FFF78AFEBF
:101BD0002046FFF7D9FE35E0E0690028D8BF1A4655
:101BE00010462DE094F96E100E46002EC8BF084135
:101BF00002DC44BF7642B04000EE100AB8EEC00AE4
:101C0000D5ED020AD4F8C41360EE200AFDEEE00A16
:101C100010EE900A41189942C8BF194602DC914261
:101C2000B8BF1146C4F8C413687858B9D5ED010A95
:101C300020EE200ABDEEC00A10EE100A081840423D
:101C4000FFF772FE94F86F001BA5012813D002283D
:101C500002A809D1FFF73AFE00F028F8A26E616EE3
:101C60001CA0FFF79DFD06E0FFF730FE00F01EF818
:101C700027A0FFF795FD02A8FFF728FE00F016F851
:101C8000E269A1692DA0FFF78BFD7FBDCDCC4C3E55
:101C9000000000006C4C0120804C012041420F00EC
:101CA00000E0B1FF00204E0001E1F505039A029922
:101CB0002846FFF775BD000028442025642E2530F6
:101CC0003964292000000000696E6974436C6F63F9
:101CD0006B0A0000757064617465436C6F636B3AE6
:101CE000206F6E652D7761792064656C6179206164
:101CF000766572616765642028503250293A202544
:101D00006420736563202564206E7365630A000098
:101D1000757064617465436C6F636B3A206F6E65B8
:101D20002D7761792064656C6179206E6F74206312
:101D30006F6D70757465640A0000000075706461F1
:101D40007465436C6F636B3A206F666673657420CD
:101D500066726F6D206D61737465723A2025642020
:101D6000736563202564206E7365630A00000000BC
:101D700002780A7043784B70FF2382788A70CB70A8
:101D8000FE220A71C3784B7102798A714079C87159
:101D900070472DE9FE4306466846FFF797FD019A16
:101DA00000990FF2A440FFF7FBFC0FF2AC40FFF7E5
:101DB000F7FC06F585640120A5693070711C06F2F8
:101DC0001140FFF7D5FF012070810023E97871737E
:101DD00005F12807A8783073A988F181A8793074B3
:101DE000E9797174287AB074701C697AF17406F11B
:101DF000580102680A6042684A6006F160000122E8
:101E000002800221C1708360436006212A78027338
:101E1000417305F132016A78827301220B78C37332
:101E2000027402234374002202832B8E4383D5E97C
:101E3000088906F5836006F58466C0E90089D7E95C
:101E40000023C6E9002305F138000289A2814389F5
:101E5000E3814268A26000686060CA786270887836
:101E60002070A97B2175BDE8F78338B504460D467F
:101E7000082203F0B1F8002802BFB4F90800B5F950
:101E80000810884201D1012032BD002032BD2DE969
:101E9000F04700F174068946B6F90A4090460025DD
:101EA0004FF0580A07E0B6F90410601C90FBF1F4FB
:101EB00001FB14046D1CB6F90400854221DA316877
:101EC0000AFB04F7C91909F11800FFF7CEFF002833
:101ED000E9D0306800F10A0100F10A03CA5B521C24
:101EE000DA53C01930304946282203F0B9F8316876
:101EF000C91901F10C004146BDE8F047242203F066
:101F0000AFB8B6F906108842BCBF401CB080B6F925
:101F10000840316809F118001AFB04F40919026835
:101F20000A60002342684A603068B9F8202001192D
:101F30000A300A81035301F130004946282203F098
:101F40008FF83168091901F10C004146242203F091
:101F500087F8B6F90800B6F90610401C90FBF1F2BC
:101F600001FB12003081BDE8F08700218182C16150
:101F7000816141620162421C00F1280113680B601B
:101F800053684B60411C0023038600F13C020B6840
:101F900013604B68536000F14401427B4A70037B3D
:101FA0000B70C2894A80037C0B71427C4A71D0F865
:101FB000400442890A8100208872C87208734873FD
:101FC0008873C873A0200874704770B5154606461C
:101FD000E88B401CB0820C4604F1180106F1280081
:101FE000FFF743FF28B9D6F8380440F40060C6F87C
:101FF000380404F1180006F12801D0E90023C1E9F2
:102000000023208C308605F1150106F13C000A689A
:1020100002604A68426006F14400697C41702A7C93
:102020000270698A4180AA7B0271297D4171AA8967
:102030000281217A890801F001018172217A49081F
:1020400001F00101C172217A01F001010173217ACD
:10205000090901F001014173217A490901F00101E7
:102060008173217AC90801F00101C17395F820102C
:10207000017470BD30B5137C8B73541C01F11503D2
:1020800025681D6065685D60147B0C74537B4B7420
:10209000D4894C820024537C0B75CC83511C0A6874
:1020A00040F8182F4A68426030BDF8B504460E4625
:1020B00015461F46082207F1150106F1150002F02A
:1020C0008BFF002822D0B17BBA7B8A4250D3914249
:1020D00042D3317C3A7C8A424AD391423CD3717CD0
:1020E0007A7C8A4244D3914236D3B6F91210B7F9BA
:1020F00012208A423CDB91422EDB317D3A7D8A42BE
:1021000036D3914228D3002832DC25D4B6F91E10EC
:10211000B7F91E20561C8E422ADB481C90421BDB5E
:1021200006988A420CDA00F15801082204F11800DE
:1021300002F052FF00B200281ADC19D40020F2BDD0
:1021400091420BDA00F15801082205F1180002F063
:1021500043FF00B200280EDD0120F2BD082205F188
:10216000180104F1180002F037FF00B2002802DD68
:102170004FF0FF30F2BDC00F40B2F2BD2DE9FC417F
:102180000D46164606F162010446B1F91600002814
:1021900002BF09780329032022D006F1800706F147
:1021A000A80841463846FFF765FF00962B462246B1
:1021B00041463846FFF779FF317B802903DA012851
:1021C00003D006200CE0012804D13046FFF7CDFEF5
:1021D000052005E02A4621463046FFF7F6FE082096
:1021E000BDE8F6812DE9FC41064601274FF00008C5
:1021F000582412E03DB215FB04FE00F10C01303012
:1022000000960CF10C030CF1300271447044FFF79E
:102210004CFF002848BFA8467F1C706FB6F9782095
:1022200004FB08F100EB010C39B29142E2DBA6F8A5
:102230007E80324602B0BDE8F0410CF10C010CF199
:1022400030009BE70000000028442025642E253044
:102250003964292000000000696E6974446174616A
:102260000A000000002101824182143002F0A4BF64
:1022700070B504460D4604F1140002F0AEFFB4F947
:102280001000628A411C002601F00301914206D031
:10229000401C00F00300208244F82050012604F185
:1022A000140002F09FFF304670BD38B5044604F1BB
:1022B000140002F092FFB4F91200B4F910100025D6
:1022C000884218BF012504F1140002F08BFF284654
:1022D00032BD1FB5044601A8FFF7F8FA029A01992A
:1022E0000FF23440FFF75CFA0FF23C40FFF758FA68
:1022F000206800906946804803F0F0F8E06830B14B
:1023000003F06EFDE06803F076FD0020E0602069D8
:1023100030B103F065FD206903F06DFD0020206100
:1023200000212160A160012004B010BD10B5084655
:1023300072490C6894F82C2004F12D0102F080FE03
:10234000606810BD1CB5144621461430FFF790FF9D
:1023500040B900F05AF900F060F900F015F80FF2FA
:10236000E83017E019E01CB5144621462C30FFF781
:102370007FFF40B900F049F900F04FF900F004F890
:102380000FF2E83006E008E0019A00990FF2A83059
:10239000FFF706BAFFF704FA13BD02F06BF813BD9E
:1023A000F8B588B004460D4600F0AEF8039A0299DD
:1023B0000FF26430FFF7F4F90FF2D430FFF7F0F9C1
:1023C00004F11400FFF74EFF04F12C00FFF74AFF61
:1023D000D5F84004224605F211410C30FFF7A6FF64
:1023E00001900FF2543530B900F08EF800F08FF8FC
:1023F0000FF2A83009E003F012FDE06040B900F0F0
:1024000083F800F084F80FF2C030FFF7C9F928E034
:1024100003F005FD206140B900F076F800F077F890
:102420000FF2CC30FFF7BCF918E00FF2F0360020C5
:10243000A06004A896E88E0080E88E00694603F04C
:1024400091FD88B900F060F800F061F804A90FF27E
:10245000D830FFF7A5F9206903F0CDFCE06803F060
:10246000CAFC002009B0F0BD00980FF2F0372060E0
:10247000694601A802F0B1FF024631460FF2F0367C
:1024800000F0C8F896E80E1004A880E80E1069461F
:1024900003F068FD38B900F037F800F038F804A907
:1024A0000FF2D830D5E70098134D6060694601A857
:1024B00002F093FF0246314600F0ACF8E068216874
:1024C0008161216922688A6122460D4903F090FCEE
:1024D000E06840F23F12294603F035FC20690949C3
:1024E000224603F085FC20694FF4A072294603F0D0
:1024F0002AFC0120B6E700002C1C01080C4C01202E
:10250000452300086723000802A8FFF7DFB9039AF4
:1025100002992846FFF744B910B5044604F11400A7
:10252000FFF7C3FE20B904F12C00FFF7BEFE00B197
:10253000012010BD10B5044604F1280002F04DFE44
:1025400008E0401C00F00300E08404EB80004069D8
:1025500003F0F8FFB4F92600B4F924108842F0D152
:1025600004F12800BDE8104002F03CBEFEB506466E
:1025700017460D4607F1140002F02FFEB7F91200BE
:10258000B7F910100024884205D0401C00F0030069
:10259000788257F8204007F1140002F023FEC4B1FE
:1025A000B4F8080064A740F22D12904206DB00F058
:1025B00034F800F02DF800BFBEA006E058B900F0D6
:1025C0002CF800F025F800BFC4A0FFF7E9F800F0F0
:1025D0001CF80020FEBD1DB120692860616969609A
:1025E000204625890021002209E043685F5CB7543A
:1025F000491C4389994204BF00680021521CAA4229
:10260000F3DB00F002F82846FEBD204603F09ABF37
:10261000019A00993846FFF7C3B86846FFF756B9E4
:102620000B46114600F1140203E00B46114600F17F
:102630002C0218469AE700002DE9FE4305460F4696
:1026400016469946002289B2002003F09DFD040041
:102650000FF2E40808D1FFF7E0FF00F030F800BF08
:10266000A6A0FFF79DF827E0BAB2294604F0FCF8CF
:10267000050007D0FFF7D1FF00F021F84FEA050170
:10268000A8A00EE00A98438A4A46214603F0A7FA1A
:10269000050009D0FFF7C1FF00F011F84FEA05016E
:1026A000ABA0FFF77DF805E0300003D02169316071
:1026B00062697260FFF7A9FF3846BDE8FE83019AA0
:1026C00000994046FFF76CB81CB50C4611461A46F7
:1026D000C368009303462046FFF7AEFF16BD80B5E2
:1026E0000346084611461A6900920022FFF7A4FF2C
:1026F00002BD38B50C4605691146031D0095002240
:1027000006E038B50C4611461A46C5680095031D0B
:102710002046FFF791FF32BD28442025642E253046
:1027200039642920000000006E6574536875746474
:102730006F776E0A0000000028452025642E2530A2
:1027400039642920000000006E6574526563764587
:1027500076656E7443616C6C6261636B3A2071756F
:102760006575652066756C6C0A0000006E657452B4
:1027700065637647656E6572616C43616C6C62611E
:10278000636B3A2071756575652066756C6C0A001F
:102790006E6574496E69740A000000006E657449C4
:1027A0006E69743A204661696C656420746F2066B6
:1027B000696E6420696E7465726661636520616428
:1027C00064726573730A00006E6574496E69743AC9
:1027D000204661696C656420746F206F70656E209F
:1027E0004576656E7420554450205043420A0000DF
:1027F0006E6574496E69743A204661696C6564203F
:10280000746F206F70656E2047656E6572616C2015
:10281000554450205043420A000000003232342E0A
:10282000302E312E313239006E6574496E69743A3A
:10283000206661696C656420746F20656E636F64E7
:1028400065206D756C74692D6361737420616464B7
:10285000726573733A2025730A0000004A6F696E2F
:102860002067726F75703A2025732C2025640A004A
:102870003232342E302E302E313037006E657449AE
:102880006E69743A206661696C656420746F2065B6
:102890006E636F64652070656572206D756C746918
:1028A0002D6361737420616464726573733A2025CB
:1028B000730A00006E6574526563763A2072656330
:1028C0006569766564207472756E636174656420F1
:1028D0006D6573736167650A000000006E65745270
:1028E0006563763A20726563656976656420656D17
:1028F000707479207061636B65740A006E6574533F
:10290000656E643A204661696C656420746F20616D
:102910006C6C6F63617465205478204275666665DF
:10292000720A00006E657453656E643A20466169F0
:102930006C656420746F20636F70792064617461CA
:1029400020746F205062756620282564290A0000D3
:102950006E657453656E643A204661696C656420E7
:10296000746F2073656E642064617461202825642F
:10297000290A00007CB504460D462078000928701D
:1029800004F11406217801F00F016970607800F0FD
:102990000F00A870608804F047FAA880A11D207974
:1029A000A871E81D0A7802704A78427004F10801A3
:1029B00001A80A68026004F10C010A6801980092FB
:1029C00004F038FA01460020C5E90401009804F03B
:1029D00031FAD5E90423002110185941C5E9040151
:1029E00005F118003168016071684160A08B04F046
:1029F0001BFA2884E08B04F017FA688405F12400A0
:102A000094F82010017094F82120427073BD38B5FD
:102A100004460D468020287094F871106970A27CDD
:102A20002A71207808B10221A971082105F1080056
:102A300004F00EFA04F1580105F1140000F045F815
:102A4000B4F8600004F0F0F9A8837F2085F8210035
:102A500031BDF8B500F087F804F1480640F00B00EE
:102A6000287005F12C07402004F0DEF96880B4F8E6
:102A7000860304F0D9F9E8830A21052085F82000AF
:102A800096F8240085F8210005F1220004F0E0F911
:102A900000F0C3F838803178F970207B3871617BA1
:102AA0007971E08904F0C0F9F88004F13C01707894
:102AB000387205F1350000F008F8A08A04F0B4F986
:102AC00025F83D0F307BA870F1BD0A6802604A68A6
:102AD0004260704770B505460C4600F02AF9A080A8
:102AE00005F13206686A04F0A5F92060A86A04F0CE
:102AF000A1F9A060A88D04F097F9A08105F12F003D
:102B00000178A1734278227480786074308804F070
:102B10008BF9608205F13501B078207504F115005C
:102B2000FFF7D3FF35F83D0F04F07EF9E083A87876
:102B300084F8200070BD70B500F015F828701646B6
:102B400000F032F86880B4F8840304F06DF9E8838B
:102B5000002085F8200005F1080000F057F8082152
:102B600004F076F946E00D460446287800F0F000BF
:102B70002870704738B51AE070B500F051F840F091
:102B8000010000F010F86880B4F8820304F04CF9FA
:102B9000E8837F21012000F099F800F03EF8688476
:102BA00005F1240429E028702C2004F03DB90446E6
:102BB0000D46608C04F038F9A880606A04F03AF998
:102BC0002860A06A04F036F9A86031BD70B500F045
:102BD00027F840F00800FFF7E6FF6880B4F98403A7
:102BE000401E80B204F020F9E883022085F820001E
:102BF00000F00CF800F011F86884306804F01AF95D
:102C00002060B06804F016F9606070BD94F86E1032
:102C100085F8211005F124047047B08804F004B948
:102C20000D460446287800F0F000287016467047DC
:102C300038B5BCE7F8B50C460746207800F0F00040
:102C40002070154640F0090020701E4600F06EF816
:102C500000F066F8D5E9042004F0ECF800F0AEF8D6
:102C6000E06000F066F8E083032084F8200097F825
:102C7000631084F8211004F1240790E038B55CE07B
:102C800070B5FFF7CDFF40F00200287000F04EF85D
:102C90006880B4F8800304F0C7F8E8837F2105203A
:102CA00000F014F8FFF7B9FF688405F124043068D8
:102CB00004F0C0F82060B06804F0BCF860600A213D
:102CC00005F12C00BDE8704004F0C2B885F8200082
:102CD00085F8211005F10800082104F0B9B8F8B50D
:102CE00000F084F8174640F00300207004F1240639
:102CF00000F01CF800F014F800F01BF800F063F886
:102D0000B88804F091F86084386804F093F8306073
:102D1000B86804F08FF8706000F05DF83082F1BDA3
:102D20006080082104F1080004F092B8362004F015
:102D30007BB8688C04F078B838B504460D46608CD2
:102D400004F072F8A880606A04F074F82860A06A41
:102D500004F070F8A86005F10C0104F12C00026881
:102D60000A6042684A60A08E04F05EF8A88231BD15
:102D7000F8B500F03BF8164640F00A00207004F168
:102D80002407FFF7D3FF6080FFF7D3FF00F01BF8A5
:102D9000D5E9042004F04EF800F010F8E060FFF7E9
:102DA0003CFF6084306804F045F83860B06804F097
:102DB00041F8786000F00FF83882F1BDA060D5E9E5
:102DC000040104F037B8E0837F21052084F8200057
:102DD00084F82110704704F12C0105F118000268F5
:102DE0000A6042684A60288C04F01EB804460D460A
:102DF000207800F0F0002070704738B59DE7F0B4FF
:102E00000246106895681318506803EB5004C00719
:102E10001DD54D441BE013F8017B05F8017B491ECD
:102E2000F9D1A0B1B60813F8011B06F00306032E72
:102E300008BF13F8016B01EB06214942801C2944AD
:102E400005D011F8016B05F8016B401EF9D1A342C2
:102E50000ED013F8016B16F0030104BF13F8011B29
:102E6000C91C30090F28DAD113F8010B0F30D6E74F
:102E7000F0BC02F10C007047F0B5D0E900670C46D9
:102E800000218F4205DA764267EB47074FF0FF35A6
:102E900000E00125360C46EA07463046391400F0BA
:102EA00009F8684320603914304600F003F85543B0
:102EB0006560F0BD384A002303F0CEBFE0B502687C
:102EC00012F0004F04BF436813F0004F06D068466D
:102ED000FEF7FCFC00F01CF835A016E00A600022AA
:102EE000406888608A8007BDE0B50A686FF00043DB
:102EF0009A4203D202608968416007BD6846FEF7C6
:102F0000E5FC00F005F800BF37A0FEF749FC07BD5F
:102F1000019A009922A0FEF743BC10B544681E49EF
:102F2000026894FBF1F39A18002A01FB134303DDB6
:102F3000002B07D5521E04E004D5002B02DD521CE5
:102F40001649CB184360026010BD38B50C68136891
:102F50001C1904604D6851684D1907E038B50C68BC
:102F60001368E41A04604D6851686D1A4560BDE845
:102F70003240D2E738B502684568074902EBD273A0
:102F80005B10A2EB430401FB04544460036004EBB8
:102F9000D47464104460EAE700CA9A3B003665C402
:102FA00028442025642E25303964292000000000A3
:102FB0004E656761746976652076616C756520631E
:102FC000616E6E6F277420626520636F6E76657226
:102FD00074656420696E746F2074696D65737461C3
:102FE0006D70200A00000000436C6F636B207365F6
:102FF00072766F2063616E6E6F2774206265206544
:1030000078656375746564203A207365636F6E64D8
:1030100073206669656C64206973206869676865F8
:1030200072207468616E207369676E656420696ED2
:1030300074656765722028333262697473290A00E7
:103040002DE9F04F0FF2A41CA1B0DCE90089CDE915
:1030500000892A9DDFF8109C049100248DF84350CC
:103060000D944FF0FF38824616461F460FE0B346D8
:103070002C461BF8011B0498D0470028049000F050
:10308000A2800D98401C641E0D90F2D17619307804
:10309000252808D1002100220791089209910A925F
:1030A0000B910C920DE06A464146304604F040F820
:1030B000050001D10D98A1E0D9D50125E6E741F041
:1030C000010116F8010F2028F9D023280CD02B2855
:1030D00004D02D2805D0302809D076E041F0020137
:1030E000EFE741F00401ECE741F00801E9E741F0C6
:1030F0001001E6E70F9209E00F98484505DA00EB6A
:10310000800402EB4402303A0F92761C3278A2F12E
:1031100030000A28F0D330782E2818BFCDF8388038
:1031200022D116F8010F2A2807D138683860761C9A
:1031300050F8042B38600E9216E02D280CBF761C38
:10314000002000220E920AE040B90E9A4A4505DAA4
:1031500002EB820403EB4403303B0E93761C33787E
:10316000A3F130020A2AEFD3ADF8401021A0317844
:1031700003F0E8FF08B116F8010B8DF842009DF846
:103180004200682804D1307868280AD1622105E01D
:103190006C2804BF30786C2803D171218DF842105F
:1031A000761C12A806903A4616F8013B02A9504632
:1031B00000F064F838B912AA02A9504600F0CAF922
:1031C00000287FF564AF404618E02A2892D13A687B
:1031D0003A6052F8040B3A6000280F9003D5404241
:1031E0000F9041F00401761C95E7000000000000FC
:1031F00000000000686A6C747A4C000021B0BDE8E1
:10320000F08F622820D0682811D06A2803D06C285B
:1032100027D0712825D10868C01D20F0070008605C
:10322000D0E9002308300860194610467047002A8C
:103230000A680A60106803D0121D0A6000B217E025
:10324000121D0A6080B217E0002A0A680A6010683E
:1032500003D0121D0A6040B20AE0121D0A60C0B21B
:103260000AE0002A0A680A60106803D0121D0A608A
:10327000C1177047121D0A60002170477CB50D46CA
:1032800011461C462E69B4F1250200F051811C3A0A
:1032900000F08680121F022A40F282800E3A00F06F
:1032A0000B81521F5AD0093A7AD0921E16D0521E64
:1032B00035D0521E022A73D9121F30D0521F00F08F
:1032C0009A80521E4AD0521E00F0E480D21E00F0B6
:1032D0000181921E42D0D21E40D02FE195F83A4093
:1032E0006C2C09D06869421C6A610A680A6052F84D
:1032F000043B0A6033542BE10A680A6052F8043B2D
:103300000A600093002201924FF0FF332B636A465C
:10331000294600F09AF9002840F11A8105E195F854
:103320003A000122FFF76DFFC5E900010023994231
:1033300004DA6869411C69612D220DE0288F81073C
:1033400004D56869411C69612B2205E0C00722D5BC
:103350006869411C6961202232541CE095F83A00EA
:103360000022FFF74EFFC5E9000195F8380001077C
:1033700011D5D5E900230020834208BF82420AD03C
:1033800044F02000782806D1686930213154401C6F
:10339000421C6A613454214668693044E86087E021
:1033A0000868C01D20F007000860D0E9002308303D
:1033B0000860C5E90023D5E90001C80F04D0686999
:1033C000411C69612D220DE0288F810704D56869B1
:1033D000411C69612B2205E0C00704D56869411CC6
:1033E00069612022325468693044E86021462846E9
:1033F00000F03AFAACE005F13A02507820B14FF013
:10340000FF340FF6343074E01078622808D0682852
:1034100024D06A2812D06C282ED071280ED02BE030
:103420000A680A6052F8040B0A6020B94FF0FF34B2
:103430000FF61C305DE0E96A017089E00A680A60F5
:1034400052F8040B0A6020B94FF0FF340FF6003039
:103450004FE0EA6AD317C0E9002379E00A680A60FE
:1034600052F8040B0A6020B94FF0FF340FF6E02049
:103470003FE0E96A01806BE00A680A6052F8040BD9
:103480000A6020B94FF0FF340FF6C42031E0E96A3A
:1034900001605DE00A680A6052F8040B0A600021CE
:1034A00020F0000221F0FF33C5E90023EE6078210F
:1034B000284600F02DF94BE06C2285F83A200B6885
:1034C0000B6053F8042B0B6052BB4FF0FF340FF628
:1034D000B4200EE095F83A206C2AF0D00868086015
:1034E00050F8044B0860EC603CB94FF0FF340FF625
:1034F000782003F033FE201A76BD2E6B002E04D503
:10350000204603F04BFE044608E0324600212046E8
:1035100003F060FE002814BF041B3446AC6117E0C2
:10352000294600F092F8002812D54FF0FF3076BD02
:103530006869411C69612522325409E06969481CA7
:10354000686125227254210002D0431C6B613454FF
:10355000002076BD2DE9F0410E4605469046726B7F
:103560007069316AB46A121AB069521A716A121A11
:10357000F069521A121A96F83800141B41070DD43C
:10358000002C0BDD2746B0682021A8470028B0603A
:1035900057D0F06A401C7F1EF062F4D17369424636
:1035A0003146284600F0B0FC00284AD1376A002F87
:1035B0000ADDB0683021A8470028B06041D0F06A29
:1035C000401C7F1EF062F4D1B369F2683146284690
:1035D00000F09AFCA8BB776A002F09DDB0683021A3
:1035E000A847B06068B3F06A401C7F1EF062F5D156
:1035F000F068B169F36942183146284600F084FC4E
:10360000F8B9B76A002F09DDB0683021A847B0606B
:10361000B8B1F06A401C7F1EF062F5D196F8380010
:1036200041070BD5002C09DDB0682021A847B06008
:1036300038B1F06A401C641EF062F5D10020BDE88C
:10364000F0814FF0FF30BDE8F0812DE9F8470D46DD
:10365000A3B02F6B002F0646904648BF6FF000477F
:103660000FF63C1403F0E2FDD4E90023696B401827
:10367000CDE90123812828BF4FF0FF3042D200243A
:10368000002F33DDD8F8001001AA684603F052FD80
:103690008146B9F1000F38D4D8F8000010B9B9F15B
:1036A000010932D44F4521DB6869484481280AD397
:1036B0000021696303AA29463046FFF74BFF040047
:1036C00014D40020686103ABD5F814A04A466946BB
:1036D00003EB0A0001F0B4FCCA44C5F814A058F882
:1036E000040B002818BFA7EB0907C9D14CB903AADE
:1036F00029463046FFF72EFF044614B900206861C2
:103700006863204624B0BDE8F0874FF0FF34F8E747
:103710002DE9FC4707468C463E69BCF16F0F08BF98
:10372000082405D04CF02000782814BF0A24102467
:103730003C25D7E90023BCF1640F18BFBCF1690F29
:103740009046994606D100218B4203DAD8F1000851
:1037500069EB49094FF0000AD14508BFD0451FD198
:10376000386BE8B9082C4BD197F83800010747D5DA
:1037700030203B2586F83B0042E000280ED597F824
:10378000380000F01400102808D17B6B7969386A82
:103790005B1A1B1A9A1A002AC8BF3A62BDE8F3875F
:1037A0008DF800C0404649462246E31703F076FBF9
:1037B0003032D0B26D1E3A28019504DB9DF800002E
:1037C000A0F151018A187255404649462246E31736
:1037D00003F064FB89468046D14508BFD04503D03D
:1037E000F86871198842DDD3082C09D197F83800A0
:1037F000010705D5705D302802D06D1E3020705550
:10380000C5F13C02BA617119F960386B8242B4DAD1
:10381000821A3A624FF6EF70398F01403987BDE85E
:10382000F3872DE9D04306460F4614464FF00008B3
:10383000DFF8389412E0E00707D542464B463046A1
:10384000394603F0F9FC06460F46404649464246D3
:103850004B4603F0F1FC641080468946002CEAD107
:1038600030463946BDE8D0832DE9F34F054641F097
:1038700020048DB0D5E90089612C02AE09D0286BF7
:10388000002848BF062003D408BF672C01D10120BF
:103890002863D5E9002358004015401C0ED11903B8
:1038A0000CD00320A8619DF8381061391A2902D282
:1038B0000FF2F46111E00FF2F4610EE059004915C6
:1038C000491C0FD118030DD10320A8619DF83810B1
:1038D00061391A2914D30FF2DC61E868032201F080
:1038E000AFFBD3E1194621F00043B3F5801F10462A
:1038F0000DD20027BB4208BFBA42019703D111E0A5
:103900000FF2AC61E9E701AA03F068FD0AE0DFF815
:10391000607307EB1352DFF85C3301921940DFF854
:1039200058331943C5E90001612C0ED1E8683021F4
:103930000170821CEA609DF8381061290CBF782163
:10394000582141706869801C6861D5E900AB2BF093
:10395000004300202AF00002834204BF8242002379
:1039600000F05B81612C40F0AA80286B002847BFE3
:1039700021210091401C0090009F7F1C4046494639
:103980000022002303F062FDD94601998DF808203A
:1039900038BF89F00049091F002FD04601910DF171
:1039A000090040F34981B349DFF8D0B20C910646D3
:1039B000404649460022002303F060FD80F03B8131
:1039C0004800400D00F11C0211D0002A0FDD40F22A
:1039D000FF70824205DB09F0004040EA0B01002045
:1039E00013E00C98014041EA025140460DE029F0F5
:1039F0000043002028F00002834208BF82420FBF2C
:103A000040461C22404603F051FD8046894603F0A3
:103A1000EBFDFF1F002F044609DD03F003FE024605
:103A20000B464046494603F00FFE80468946F01D8E
:103A3000072104E004F00F0200F8012D2411002CEE
:103A400001DD491EF6D5491E5CBF002200F8012D9C
:103A5000F9D5ECE00020194602AA0A4400E05B1EFA
:103A600012F80149491E8442F9D00F2804D10DF102
:103A70000900425C521C4254002904D50198001DE3
:103A800002AE5B1C0190591E12D49DF838007218CA
:103A9000A0F13A07147804F130085FFA88F43A2C60
:103AA000A8BFB844491E02F80189F3D58DF8380043
:103AB000286B002840F1B080591E2963ACE04046D5
:103AC00049460022002303F0C1FC019938BF89F068
:103AD000004947F297504143694A91FBF2F2019243
:103AE000D2F1070204DD40464946FFF79AFE0AE09C
:103AF000524200206349FFF794FE02460B464046BF
:103B0000494603F013FE8046662C286BDFF878B137
:103B100006BF019F0A3706273F18142FC8BF142776
:103B200030208DF8080089460DF1090000E030468C
:103B3000002F34DD06464046494603F01BFF014690
:103B40000A4606F1080304200A26B2FBF6F606EB45
:103B5000860EA2EB4E02303203F8012C0A22B6FB8D
:103B6000F2F202EB820EA6EB4E063036401E03F850
:103B7000026DE9D1083F002F03F10806D7DD0846A2
:103B800003F00CFF02460B464046494603F05CFD3D
:103B900000225B4603F050FB80468946CBE70DF1DF
:103BA0000901401A0DF1090604E00199491E401E61
:103BB0000191761C31783029F7D0662C02D1019919
:103BC000491C03E0652C0CBF012100212B6BCB1895
:103BD0009842B8BF431E002B1ED4834204DAF05C27
:103BE0003528A8BF392000DA30201946721E02EBB2
:103BF000010800E05B1E18F80199491E8145F9D0C3
:103C0000392802D1705C401C7054002904D50198F9
:103C1000401C16465B1C0190019800B200901BB23C
:103C20009DF838103246284600F034F82EE0C61DC4
:103C3000002F3FF7BDAE30460DF10901401A009943
:103C400003468842C8BF0B46002B0DF109063FF51D
:103C50002FAF8342BFF6FEAE0DF10900C15C07290C
:103C60007FF7F8AE0F20F6E6CBCCCC0C000024405A
:103C700002FCFFFFFFFF0F800000E03F0000F07F2D
:103C8000A08601000000F03F84D797410FB0BDE847
:103C9000F08F00002DE9F84783B006468A461746A4
:103CA000984603F049FAB8F1000F406A356B90F876
:103CB000009002DC4FF00108BFA74AF02000BDF9D8
:103CC0003040662808BF641C15D0672840F0848007
:103CD00014F1040FC0F28680AC4280F2838096F823
:103CE0003800641C010702D4A845B8BF454620B27D
:103CF0002D1A48BF00250FFA84FAF068B169BAF1AD
:103D0000000F25DC4A1C30234354002D03DC96F8B9
:103D10003800010703D5F06800F80290521C15EB3B
:103D20000A0FB8BF6C4220B2441941424445B8BFA3
:103D3000A046B26171620FFA88F5F561F068B36967
:103D40002A463946184401F07BF9641BB462C4E08A
:103D500022B29045084417DA4246394601F070F91C
:103D6000B0694044B061AAEB0801002D716203DC28
:103D700096F838100A0705D5F16801F80090F06947
:103D8000401CF061B562A8E0394601F059F9B0690C
:103D9000002D5044A8EB040803DC96F838100A07FD
:103DA00003D5F16801F80090401CB0610FFA88F06B
:103DB0008542F368B069B8BFA8460FFA88F207EBEE
:103DC0000A01184401F03CF9B1690FFA88F0014486
:103DD000B161281A706280E0BAF1610F14D14FF01E
:103DE000700A16E0A84504DA96F838100A0758BF9A
:103DF00045466D1E48BF0025BAF1670F14BF4FF04E
:103E0000450A4FF0650A04E0BAF1410F08BF4FF0D0
:103E1000500AB169F368481CB061002D17F8012BF6
:103E20005A5403DC96F838100A071BD5F168431C76
:103E3000B36101F80090002D14DDA8F101080FFA1C
:103E400088F039468542F768B8BFA8460FFA88F26D
:103E5000F81801F0F5F8B0690FFA88F108446D1A06
:103E6000B0617562F068B1690844002C80F800A068
:103E700003D42B224270811C03E02D214170644247
:103E8000811C00206A460AE023460A2493FBF4F4CE
:103E900004EB8405A3EB450302F8013B401C24B26C
:103EA000002CF1DC012806DC4AF02002652A04BF60
:103EB000302201F8012B48B9302001F8010B07E04E
:103EC000401E1DF80030303301F8013B0028F7DCBC
:103ED000F268B0691044091AF16196F8380000F0F0
:103EE000140010280DD17269B169706A8A18F169DD
:103EF0008218B06A8A188218706B8242BCBF821A1C
:103F0000326204B0BDE8F087F8B505460E461746A4
:103F10001C46002074B117F8011BB068A847B060B8
:103F200030B1F06A401CF0620020641EF3D1F2BD93
:103F30004FF0FF30F2BD00007072696E74665F73FF
:103F40003A20256E20646973616C6C6F776564003C
:103F50007072696E74663A2062616420256E206119
:103F60007267756D656E74007072696E74665F73EA
:103F70003A2062616420257320617267756D656EF9
:103F8000740000007072696E74665F733A2062613B
:103F90006420256C7320617267756D656E74000016
:103FA00000000000000000006E616E004E414E00F7
:103FB000696E6600494E4600300030B4002513E0BB
:103FC00050F8042BD30744BFA9F101039A18091F25
:103FD000042942F8045BFAD213468C0744BF1580CB
:103FE0009B1CC90748BF1D7050F8041B0029E7D16E
:103FF00030BC704710B586B000F0AEF9DFF8A843CA
:10400000A068D0B100210591049103AA04A905A8D4
:1040100003F0DAFC059804990290022200920191C3
:104020000023039A0FF2A4310FF20D1003F0DAFC13
:10403000E06010B1012006B010BD00F012F9FEE7FB
:104040002DE9FC4105460E46174698462C2004F003
:104050002BF904000BD008980090019443463A468F
:104060003146284600F026F8002084F82800204633
:10407000BDE8F6813EB52C2400945025009C2C2CE4
:1040800002D000F010F8FEE7079C14B900F00BF81E
:10409000FEE7069D0194009500F00CF8012584F8D8
:1040A000285020463EBD85F31188BFF34F8FBFF3E4
:1040B0006F8F70472DE9F8430D00064691469846EC
:1040C00002D100F0CEF8FEE7099C74B1089F00F021
:1040D00043F92660A561C4F81C90C4F8208067628B
:1040E000201DBDE8F24304F0C6B9BDE8F183FEB57A
:1040F00004461E46002014B900F0B3F8FEE7AA4FAC
:10410000BD68BDB106290091019202940CDA03F05A
:104110008CFF0228B86807BF089A002300230022FA
:10412000694604F09BFAFEBD0023324669462846E4
:1041300004F02CFBFEBD000080B59B490A681068A6
:1041400000281DBF0021D0680068012100F003F89D
:1041500000F0AAF8F1E7FEB506460C4603F08AFD2A
:1041600001A800F042F80546019800283AD18E4F88
:1041700024BBB54227D303F083FD3868C168CC68FF
:10418000201D04F0A1F9E069012813D1A16933468B
:104190002A468919204600F06CF858B1002000909A
:1041A0000023324600212046FFF7A1FF10B900F09E
:1041B00058F8FEE7616A20468847F7BD78680168CD
:1041C0004C1EA441E40FB8682246711B04F07AFD2E
:1041D00003F056FD40B975494FF080500860FFF775
:1041E00064FFF7BD03F04CFDF7BD2DE9FC4104462B
:1041F00003F09AFD6C4E0546306985420BD30021D1
:10420000216035612846BDE8F68178603F61391D3F
:10421000306804F040F931680868E8B1C868D0F83F
:104220000080C768381D04F04FF9796A384688471E
:10423000F8690128EFD1B86940448045E5D30020F2
:1042400000900023424600213846FFF750FF002827
:10425000E1D100F006F8FEE770687160306001217E
:10426000CEE7502080F31188BFF34F8FBFF36F8FDD
:10427000704738B500248A42416000614A4D06D338
:104280008169D21A8A4206D2011D686807E09A4203
:1042900003D2994201D3012403E0011D286804F0F0
:1042A000FAF8204632BD000030B585B03E4C05E03E
:1042B0000B460A4641182846FFF7DBFFA06800229C
:1042C00002A904F0EAFA002844D002980028F5D4A4
:1042D000049D686910B1281D04F0F6F801A8FFF7E5
:1042E00084FF014602980928E8D8DFE800F00606B6
:1042F0000605242B06060524E0E70A460398A9696B
:10430000034609182846FFF7B4FF0028D6D0696A8B
:1043100028468847E8690128D0D100210091039AF6
:10432000A869821800232846FFF7E1FE0028C5D1BE
:10433000FFF797FFFEE70398A8610028B8D1FFF7C1
:1043400090FFFEE795F828000028B7D1284604F032
:1043500034F8B3E705B030BD1CB504F04BFD124C8A
:10436000A068E0B904F1140004F078F804F1280022
:1043700004F074F804F1140004F128010022206014
:104380006160009204F13C0304F184020C210A20D4
:1043900004F0EAF8A06010B10EA104F07EFCBDE8C4
:1043A000134004F040BD00007041012004ED00E026
:1043B00010B5040002D1FFF754FFFEE704F01AFD28
:1043C000246A04F030FD204610BD0000546D7220B8
:1043D00053766300546D7251000000001CB5344CDC
:1043E000012020700021F820A070A071E0716170A0
:1043F000002041F288312072A180222001216081B9
:10440000617204F132000021FE2241806162E2709B
:1044100004F1380100220623E2620B814A81254B18
:10442000254A0B604A60052121860123A37303708E
:1044300004F59362214604F1500004F061FD18B1C7
:104440001FA0FDF7ADF913BD23A0FDF7A9F905E005
:104450006422694604F1480000F080FE04F1500037
:10446000FCF740F8002104F21C40FEF755F8002844
:10447000F4DCEDE70021114800F067BE18B50C4CE4
:1044800087B0082104F1480000F03CFE18B100BFDD
:1044900016A0FDF785F968461FA11C2200F0E0FD7B
:1044A0000021684600F059F8606408B010BD0000B3
:1044B000802701209A99193F8FC2753DC827012096
:1044C000505450443A207374617274757020666160
:1044D000696C656400000000505450207468726577
:1044E00061642072656164792E0A00005054504462
:1044F0003A206661696C656420746F20637265613F
:104500007465207074705F616C6572745F7175653D
:104510007565206D626F7800341C0108DD4300086A
:104520000100000000000000000800000000000082
:104530000000000001460020842918BFC81C7047F5
:1045400080B503F060FB002002BDEFF3058000287A
:1045500018BF03F0EDBB03F0E7BB38B5044684B0E9
:10456000606900281CBFA06900280D4612D0B4F96C
:104570000800FFF7DFFFA16902912B4662690192F3
:10458000009022692168606803F02CFA0390039878
:1045900005B030BDB4F90800FFF7CCFF03A90191C5
:1045A00000902B4622692168606892B203F048FAB5
:1045B0000128ECD00020EBE780B500B9012003F022
:1045C00003FB002002BD1CB51346426872A45AB119
:1045D000019201290268009218BF00210A460121B8
:1045E0002046FFF747FD16BD00680090012908BF6F
:1045F000012201212046FFF723FD16BD1CB5002432
:104600000A46019402B90122EFF3058159B10094E1
:1046100001AB0921FFF76BFD01280BD1019850B1C7
:1046200000F0B0F807E0002300930421FFF75FFDDE
:10463000012800D0FF24204616BD1CB5002401949B
:10464000EFF3058161B1009401AB00220821FFF76F
:104650004EFD01280FD1019858B100F093F808E001
:104660000022009200230321FFF741FD012818BF1B
:10467000FF24204616BDFF2016BD416800291CBF3F
:10468000012003F0DEBF012003F0D0BF80B500227F
:10469000009208B9802002BD11F1010F08BF4FF050
:1046A000FF3200F07BF859B16A46002104F027FA86
:1046B00001280AD1009808B100F064F8002002BD7A
:1046C000114604F06DF90128F8D0FF2002BD1CB599
:1046D00000240094EFF3058149B1694604F09BF88A
:1046E00001280DD1009848B100F04CF806E00023F5
:1046F000002203F0B3FF012818BFFF24204616BD97
:10470000FF2016BD1CB543684BB1012917D1032406
:10471000009400220021012003F026FF16BD01298C
:104720000DD103220021012003F04DFF040004D02D
:1047300000230022002103F091FF204616BD002037
:1047400016BD80B50022009208B9802002BD11F18B
:10475000010F08BF4FF0FF3200F020F859B16A4650
:10476000002104F0CCF901280AD1009808B100F02A
:1047700009F8002002BD114604F012F90128F8D012
:10478000FF2002BDDFF84C014FF080510160BFF304
:104790004F8FBFF36F8F70470000000001D001B151
:1047A0000A46EFF3058170471CB500240094EFF32F
:1047B000058149B1694604F02EF801280DD1009811
:1047C00048B1FFF7DFFF06E00023002203F046FFB9
:1047D000012818BFFF24204616BDFF2016BD80B556
:1047E0008268002A1CBFC368002B06D000210091FC
:1047F0004168006803F0B8FE02BD41680068BDE88A
:104800000840002203F0DFBE03B581B00021009113
:1048100002B90122EFF3058161B100236A4602A9C2
:1048200003F0B4FF01280BD1009808B1FFF7AAFFED
:1048300000200EBD002302A903F010FF0128F7D0CD
:10484000FF200EBD7FB50546084600230290019368
:1048500000B934E000F027F808BF4FF0FF3400F053
:1048600028F849B103AA01A904F049F9012806BFB3
:1048700010200090009608E0224601A904F00DF8EF
:10488000012807D11021009109E0039838B1FFF702
:1048900079FF04E0002C0CBF002040200090FFE7CF
:1048A00000F01AF87FBD0024002612F1010F0396D4
:1048B000704701D002B11446EFF30581704700F054
:1048C00001F87FBD80200090694691E81C0085E8D2
:1048D0001C00704704ED00E0684690E80E0085E893
:1048E0000E00704710B5044640F20C7004F044FC12
:1048F00000F027FA60604FF4E16004F03DFC2060B6
:1049000010BD38B586B004466846142104F03AFC60
:104910002468DFF83855AC4240F08F8000200590C5
:10492000DFF82C45DFF82C05016841F000710160CB
:10493000026802F000720592002205990592036850
:1049400043F080630360016801F0806100F083F848
:1049500043F000630360016801F0006100F07BF840
:1049600043F004030360016801F0040100F073F8F0
:1049700043F001030360016801F0010100F06BF8EE
:1049800043F002030360016801F0020105910599FB
:1049900005923221036843F040030360022200685D
:1049A00000F0400005900598DFF8AC0400910192FA
:1049B0000021029103220B2104910392694604F025
:1049C000E5FB00F03CF8862000F03EF8204604F0BD
:1049D000DDFB00F034F84FF4006000F035F8DFF84C
:1049E0007C0404F0D3FB00F02AF84FF4C04000F040
:1049F0002BF8DFF86C0404F0C9FB002205213D20F0
:104A000004F0E4FC3D2004F0FEFC0FF27040FCF7E3
:104A1000C7FE00222021204604F094FC642003F00D
:104A2000D3F801222021204604F08CFC642003F0FE
:104A3000CBF80FF25C40FCF7B3FE07B030BD0221AB
:104A400001910022029270470321009003910B22F2
:104A5000049269467047059105990592036870476D
:104A6000DFF80004806CFFF79FBE70B58CB0044681
:104A7000002000900120DFF8EC53DFF8D0136860CD
:104A8000296001A880214170002200212A828DF82E
:104A90000420C170E122012182704171A9610022CC
:104AA00068614FF400010271EA612962284604F04E
:104AB000BFFC04F12A0618B9707A40F02600707223
:104AC00041F61C102A18042305F1CC01284604F0F5
:104AD00092FD042305F5A67205F14C01284604F069
:104AE000C7FD0620B07069690878F0706969487878
:104AF00030716969887870716969C878B07169695D
:104B00000879F07169694879307240F2DC5131807E
:104B1000707A0FF2FC3140F00A007072D1E9002384
:104B2000CDE90323012103A8FFF7ECFDA8641C22B3
:104B300005A80FF2E43100F093FA214605A8FFF72B
:104B40000CFD284604F0C0FE00F030F8009840F05C
:104B50000B0000901D21009A284604F07EFE00F014
:104B600025F800214FF4007004F018FA012004F039
:104B7000D6FA0C2004F0E9FADFF8EC0204F0EDFAC2
:104B800004F0B5FA202004F0D8FA0128FAD0012068
:104B900004F0B9FA00220021002004F0D9FA04F050
:104BA000ACFA012004F0EEF90CB070BD6A461D218C
:104BB000284604F016BE2DE9FE4FDFF8A802C76AAA
:104BC000BE680C464FF00009C84625464AE00BF285
:104BD000F45B09F2F459B968A6F2F450ABEB060B9A
:104BE000A9EB060982440026881906EB0A0840F260
:104BF000F45398452ED969689A1B594400F020FA5D
:104C0000FF6838680028E2D56FF0070014E06A46B4
:104C10004946DFF8500204F0CBF910B16FF00B00F9
:104C20000AE0019888492061009AA1FB0201C00FA7
:104C300040EA4100606100208A490A6841F20403A9
:104C4000D1180C69A20603D520230B6100220A604B
:104C5000BDE8FE8F0E4669685246594400F0F0F9EF
:104C60002D68D144002DD2D038680028CCD4B5F8B6
:104C70000AA031464FF0000B4646B5E72DE9F84F44
:104C8000784E30460024009404F036FD0028A046FB
:104C900054D1F16BD6F840A088B278B3032289B220
:104CA000042001F071FA040028D0D6F830B027466D
:104CB000B7F80A9000205246454682460EE05A1B3D
:104CC00000F0BEF9DBF80CB0DBF808200AF2F45A69
:104CD000A5F2F450AAEB050A814400257868511921
:104CE00005EB090840F2F45398455044E7D8924642
:104CF0004A4600F0A5F93F68002FD9D1706BC16911
:104D00002161806900F01DF860610099306B05E059
:104D1000026842F000420260491CC068B26B9142D6
:104D2000F6D30020B06341F2080231688818C368E6
:104D3000190603D58022C260002101602046BDE82B
:104D4000F28F4149A1FB0001C00F40EA41007047CA
:104D500070B50546434EB06C4FF0FF31FFF7F1FCE4
:104D60000028F8D12846FFF789FF0400F3D02A690C
:104D7000294690470028F5D0204601F0E3FBF1E7F3
:104D80000000000010B5040009D100BF0FF2541359
:104D90000FF2401145A040F2A522FCF701FD04F1FD
:104DA00034007321742201704270304830496061D0
:104DB000A1612046FFF759FE002010BD04F086BE19
:104DC00038B52C49884202DC2B49884200DA084673
:104DD00040F2131181FB0001000A40EA0160FE224B
:104DE0000912A2FB004502FB0155A40944EA8564AF
:104DF0001D48201804F0B1F9BDE8314004F077B93E
:104E000038B504684268002C02D406D1002A04D5C3
:104E10004FF000456442524200E0002500F00DF8DA
:104E200002462146284604F093F904F066F904206E
:104E300004F083F90128FAD031BD5108D007024AA5
:104E4000002302F02BB8000000CA9A3B0080024009
:104E500000000240303802400008024000040240D6
:104E60000018024034C900209E3E84FE23FA000848
:104E7000B74B000800204E0000E0B1FF526573748C
:104E8000617274696E67205048592E2E2E0D0A00EB
:104E90004C414E3837323020496E697469616C6913
:104EA0007A696E672E2E2E0D0A000000417373651D
:104EB0007274696F6E2022257322206661696C65A9
:104EC00064206174206C696E6520256420696E2001
:104ED00025730A006E6574696620213D204E554C8D
:104EE0004C000000453A5C5454455C456D62656475
:104EF00065645054505C505450536C6176655C53FB
:104F000072635C65746865726E657469662E6300B1
:104F10000000000000000000241C0108514D0008A2
:104F200003000000000000005E010000000000001F
:104F300000000000F0B5244C244A2078244B6FF088
:104F4000004150BB0820656803FB05250E46B5FBF4
:104F5000F6F601FB1655401E6560F4D11D4D2E4638
:104F60001020676803FB07278C46B7FBFCFC01FB9E
:104F70001C77676046F8047B8E4603FB0727B7FB68
:104F8000FEFE01FB1E776760401E46F8047BE8D1F9
:104F9000E86FC5F8800001252570606803FB0022DA
:104FA0000B46B2FBF3F301FB13210A4A616092F84E
:104FB000803003F01F0352F82300C2F8800042F84B
:104FC000231020F04040F0BD4C0000205FF36E3C09
:104FD0000D661900784901200300002013F0030F2B
:104FE00009D0521E22BF13F8010B11F801CBB0EB10
:104FF0000C00F3D0704711F0030F14D1121F22BF21
:1050000053F8040B51F804CB6045F7D0121D0AD2B7
:1050100000BA9CFA8CFCB0EB0C0038BF6FF00000BB
:1050200088BF01207047521E22BF13F8010B11F8F0
:1050300001CBB0EB0C00F6D0521C08BF10467047F5
:1050400062B38B0708D0521E11F8013B00F8013BF8
:1050500000F024808B07F6D1830740F0208000BF4A
:10506000103A07D330B4B1E83810103AA0E838103D
:10507000F9D230BC530724BFB1E80810A0E80810EB
:1050800044BF51F8043B40F8043BD20724BF31F839
:10509000022B20F8022B44BF0B7803707047121FBD
:1050A00017D35B0009D151F8043B20F8023B1B0CDD
:1050B000121F20F8023BF6D20BE051F8043B00F837
:1050C000013B1B0A20F8023B1B0C121F00F8013B9E
:1050D000F3D238BF121D521E24BF11F8013B00F855
:1050E000013BF8D87047B1F5807F02D34FF0FF3015
:1050F00070470170012070470078401E8041C04316
:10510000C00F704738B584B004460D464FEA0D0015
:1051100049A11022FFF7A4FF009500216846FFF780
:105120005EFB206000280CBF4FF0FF30002005B070
:1051300030BD38B504460D4620684FF0FF32294691
:10514000FFF762FB0028F7D131BD80B5006800226F
:10515000FFF75AFB08B14FF0FF3002BDFEB5054620
:105160000E461446FFF7F1F9074654B12968224666
:105170006846FFF767FB0098102808D04FF0FF3013
:10518000FEBD29684FF0FF326846FFF75BFB0198D0
:105190003060FFF7DAF9C01BFEBDFFE7006800B121
:1051A000012070470000000080B500BF26A0FFF777
:1051B00064FA2049086001BD25A11CB5D1E900238E
:1051C000CDE9002304466846FFF757FA206010B97E
:1051D0004FF0FF3016BD002016BD00684FF0FF31C4
:1051E000FFF754BA21E02DE9F84187B006460C4696
:1051F0000E9F90461D4668461C2103F0C3FF009693
:105200000194ADF80870049541466846FFF7A5F98A
:1052100008B0BDE8F08180B5064800684FF0FF3166
:10522000FFF734FA012002BD02480068FFF74FBAC9
:1052300000000000704C012000000000040000008D
:10524000000000000000000000000000000000005E
:105250000000000000000000DFF8CC04DFF8CC14F0
:10526000DFF8CC2401604260704738B5DFF8B854ED
:105270000446294600F02AF860B1027B0221521C44
:1052800041720273A36B1BB1012229462046984745
:10529000002032BD4FF0FF3032BD406A002800D1FF
:1052A000704710B5046804E00521204600F0D5F9E8
:1052B0002468002CF8D110BD406A0B6800E000683B
:1052C00000281CBF42689A42F9D17047F8B50746DA
:1052D0000D467C6AFFF7F0FF78BB0A2004F040FC23
:1052E000060029D0002D0CBF002028687060002027
:1052F0007081707230723073DFF82C0401682A6894
:105300000FF23C400FF294435CB98A4205D040F260
:105310000D120FF25441FCF743FA002030607E6218
:105320000AE08A4205D140F213120FF2C041FCF7A5
:1053300037FA2068306026603046F2BDF8B5054681
:105340000C4669890829174643DB6E68304604F02D
:1053500012FD00283DD139462046FFF7ADFF002859
:1053600037D03178112902D016292AD031E0DFF860
:10537000B8233B681268934212D1311D1CBF71687B
:1053800000290FD1707808B90A217170606A00B3E2
:105390000468F4B17178204600F05FF92468F8E7FA
:1053A000311D16D07168A1B1934206D1706800908A
:1053B00069462046FFF780FF58B1717800F04DF93B
:1053C00007E0417A012904D1002202214281417281
:1053D0000272284601F0B6F8F1BDF8B50E46044653
:1053E00031680FF25C350FF2B43301F0F0026FF068
:1053F0000507E02A384604D040F2C7120FF23041C8
:1054000008E0DFF824231268914208D14FF4E472D7
:105410000FF254412846FCF7C3F93846F2BDDFF8D5
:1054200014130D6895B195F833108A060CD5002C2D
:105430001FBF216800296A688A4205D13146284683
:1054400000F005F8010001D12D68EBE7F2BDF8B5D9
:1054500000F0CAF801F0F007E02F6FF0050404D067
:1054600040F2EB120FF2344110E0AF4A1768B94234
:1054700004D14FF4F6720FF2604107E095F8331053
:105480008A0607D440F2EF120FF28841FCF788F940
:105490002046F2BD31462846FFF718FF040016D01B
:1054A000607A78B9207B28B9AB6B1BB101223146F9
:1054B0002846984700F00EF80521204600F0BBF87A
:1054C00001206072207B401C20730020F2BD4FF051
:1054D000FF30F2BD162221462846CFE0F8B50E4631
:1054E000044631680FF25820ACA301F0F0026FF0CF
:1054F0000505E02A2F4604D040F227220FF24C4146
:1055000007E0894A1268914207D14FF40A720FF2FC
:105510007441FCF745F92846F2BD8648056812E05B
:1055200095F8330081060DD5002C1FBF2068002898
:105530006968814206D13146284600F008F83900F2
:1055400018BF07462D68002DEAD13846F2BD2DE977
:10555000F04100F049F801F0F004E02C6FF005088C
:1055600004D040F24A220FF2544111E06E4A14680E
:10557000A14204D140F24B220FF2804108E005F134
:105580002407F97B8A0606D440F24E220FF2A84186
:10559000FCF706F925E031462846FFF78DFE0400AA
:1055A0001FD0207B022818DA386800E0084620B1B6
:1055B0000168A142FAD121680160207A10B1172256
:1055C000FFF789FF7B691BB10022314628469847C7
:1055D00021460A2004F0F6FA01E0401E2073002064
:1055E00000E04046BDE8F0810E460546D6F80010C2
:1055F0000FF24C1069A3704770B54E484A4E0568CB
:1056000015E0608978B1401E608180B2002804BF37
:10561000607A012807D160683168884203D002238C
:105620006372FFF757FF2468002CEAD12D680DB193
:105630006C6AF9E770BD38B50D46032D044606DBEC
:10564000FFF778FCB0FBF5F105FB110500E0012543
:10565000A8B200B90125658131BD10B50446607A54
:10566000022805D0012808D1608908B1814204D2FE
:105670002046FFF7E0FF0120607210BD2DE9F043E6
:1056800080462D48036887B00E46174606930022D1
:105690000821002000F078FD040041D06089656891
:1056A000082808D20FF2F4030FF2C83124A040F208
:1056B0000232FCF775F8D8F804000690162F06D1D0
:1056C00070686860012106F10409317205E0172F46
:1056D00023D17068DFF8649068602F7000216970D2
:1056E00069802846082104F046FB688040F2944116
:1056F0000022ADF81410ADF81620042005A90222EE
:1057000000230490039101920093CDF808800123B7
:105710004A4606A9204604F053FC204600F012FF3A
:1057200007B0BDE8F0830000104C0120E00000014C
:10573000E0000002084C01202C1C0108144C012040
:10574000417373657274696F6E202225732220661F
:1057500061696C6564206174206C696E65202564E4
:1057600020696E2025730A0069676D705F6C6F6F2A
:105770006B75705F67726F75703A206669727374CB
:105780002067726F7570206D75737420626520617B
:105790006C6C73797374656D73000000453A5C54EA
:1057A00054455C456D62656465645054505C50546A
:1057B00050536C6176655C4D6964646C65776172A9
:1057C00065735C54686972645F50617274795C4C93
:1057D0007749505C7372635C636F72655C69707665
:1057E000345C69676D702E630000000069676D703E
:1057F0005F6C6F6F6B75705F67726F75703A206169
:105800006C6C2065786365707420666972737420AF
:1058100067726F7570206D757374206E6F7420627F
:105820006520616C6C73797374656D7300000000A2
:1058300069676D705F6A6F696E67726F75703A2025
:10584000617474656D707420746F206A6F696E2066
:105850006E6F6E2D6D756C74696361737420616415
:10586000647265737300000069676D705F6A6F69C9
:105870006E67726F75703A20617474656D70742014
:10588000746F206A6F696E20616C6C7379737465D4
:105890006D732061646472657373000069676D7075
:1058A0005F6A6F696E67726F75705F6E6574696647
:1058B0003A20617474656D707420746F206A6F692A
:1058C0006E206E6F6E2D6D756C74696361737420DC
:1058D000616464726573730069676D705F6A6F6994
:1058E0006E67726F75705F6E657469663A20617479
:1058F00074656D707420746F206A6F696E20616CBE
:105900006C73797374656D7320616464726573730D
:105910000000000069676D705F6A6F696E67726F83
:1059200075705F6E657469663A20617474656D7038
:105930007420746F206A6F696E206F6E206E6F6EB8
:105940002D49474D50206E657469660069676D701A
:105950005F6C6561766567726F75703A206174740B
:10596000656D707420746F206C65617665206E6F54
:105970006E2D6D756C7469636173742061646472FB
:105980006573730069676D705F6C656176656772DA
:105990006F75703A20617474656D707420746F2037
:1059A0006C6561766520616C6C73797374656D7379
:1059B00020616464726573730000000069676D7034
:1059C0005F6C6561766567726F75705F6E6574692F
:1059D000663A20617474656D707420746F206C6514
:1059E000617665206E6F6E2D6D756C746963617381
:1059F00074206164647265737300000069676D7080
:105A00005F6C6561766567726F75705F6E657469EE
:105A1000663A20617474656D707420746F206C65D3
:105A200061766520616C6C73797374656D73206148
:105A3000646472657373000069676D705F6C6561A3
:105A4000766567726F75705F6E657469663A20611E
:105A50007474656D707420746F206C656176652058
:105A60006F6E206E6F6E2D49474D50206E657469C4
:105A70006600000069676D705F73656E643A20634D
:105A80006865636B20746861742066697273742042
:105A9000706275662063616E20686F6C6420737439
:105AA000727563742069676D705F6D7367000000C5
:105AB00070472DE9FC4781460C46B9F80A000828D2
:105AC0005FDBDFF8A863D9F804503168706900F033
:105AD0002FFA0746288801F0A7F98046688801F068
